{
  "contractName": "GrimeNFT",
  "abi": [
    {
      "inputs": [],
      "stateMutability": "nonpayable",
      "type": "constructor"
    },
    {
      "anonymous": false,
      "inputs": [
        {
          "indexed": true,
          "internalType": "address",
          "name": "owner",
          "type": "address"
        },
        {
          "indexed": true,
          "internalType": "address",
          "name": "approved",
          "type": "address"
        },
        {
          "indexed": true,
          "internalType": "uint256",
          "name": "tokenId",
          "type": "uint256"
        }
      ],
      "name": "Approval",
      "type": "event"
    },
    {
      "anonymous": false,
      "inputs": [
        {
          "indexed": true,
          "internalType": "address",
          "name": "owner",
          "type": "address"
        },
        {
          "indexed": true,
          "internalType": "address",
          "name": "operator",
          "type": "address"
        },
        {
          "indexed": false,
          "internalType": "bool",
          "name": "approved",
          "type": "bool"
        }
      ],
      "name": "ApprovalForAll",
      "type": "event"
    },
    {
      "anonymous": false,
      "inputs": [
        {
          "indexed": true,
          "internalType": "address",
          "name": "previousOwner",
          "type": "address"
        },
        {
          "indexed": true,
          "internalType": "address",
          "name": "newOwner",
          "type": "address"
        }
      ],
      "name": "OwnershipTransferred",
      "type": "event"
    },
    {
      "anonymous": false,
      "inputs": [
        {
          "indexed": true,
          "internalType": "address",
          "name": "from",
          "type": "address"
        },
        {
          "indexed": true,
          "internalType": "address",
          "name": "to",
          "type": "address"
        },
        {
          "indexed": true,
          "internalType": "uint256",
          "name": "tokenId",
          "type": "uint256"
        }
      ],
      "name": "Transfer",
      "type": "event"
    },
    {
      "inputs": [],
      "name": "_owner",
      "outputs": [
        {
          "internalType": "address payable",
          "name": "",
          "type": "address"
        }
      ],
      "stateMutability": "view",
      "type": "function",
      "constant": true
    },
    {
      "inputs": [
        {
          "internalType": "address",
          "name": "to",
          "type": "address"
        },
        {
          "internalType": "uint256",
          "name": "tokenId",
          "type": "uint256"
        }
      ],
      "name": "approve",
      "outputs": [],
      "stateMutability": "nonpayable",
      "type": "function"
    },
    {
      "inputs": [
        {
          "internalType": "address",
          "name": "owner",
          "type": "address"
        }
      ],
      "name": "balanceOf",
      "outputs": [
        {
          "internalType": "uint256",
          "name": "",
          "type": "uint256"
        }
      ],
      "stateMutability": "view",
      "type": "function",
      "constant": true
    },
    {
      "inputs": [],
      "name": "baseURI",
      "outputs": [
        {
          "internalType": "string",
          "name": "",
          "type": "string"
        }
      ],
      "stateMutability": "view",
      "type": "function",
      "constant": true
    },
    {
      "inputs": [
        {
          "internalType": "uint256",
          "name": "tokenId",
          "type": "uint256"
        }
      ],
      "name": "getApproved",
      "outputs": [
        {
          "internalType": "address",
          "name": "",
          "type": "address"
        }
      ],
      "stateMutability": "view",
      "type": "function",
      "constant": true
    },
    {
      "inputs": [
        {
          "internalType": "address",
          "name": "owner",
          "type": "address"
        },
        {
          "internalType": "address",
          "name": "operator",
          "type": "address"
        }
      ],
      "name": "isApprovedForAll",
      "outputs": [
        {
          "internalType": "bool",
          "name": "",
          "type": "bool"
        }
      ],
      "stateMutability": "view",
      "type": "function",
      "constant": true
    },
    {
      "inputs": [],
      "name": "name",
      "outputs": [
        {
          "internalType": "string",
          "name": "",
          "type": "string"
        }
      ],
      "stateMutability": "view",
      "type": "function",
      "constant": true
    },
    {
      "inputs": [],
      "name": "owner",
      "outputs": [
        {
          "internalType": "address",
          "name": "",
          "type": "address"
        }
      ],
      "stateMutability": "view",
      "type": "function",
      "constant": true
    },
    {
      "inputs": [
        {
          "internalType": "uint256",
          "name": "tokenId",
          "type": "uint256"
        }
      ],
      "name": "ownerOf",
      "outputs": [
        {
          "internalType": "address",
          "name": "",
          "type": "address"
        }
      ],
      "stateMutability": "view",
      "type": "function",
      "constant": true
    },
    {
      "inputs": [],
      "name": "renounceOwnership",
      "outputs": [],
      "stateMutability": "nonpayable",
      "type": "function"
    },
    {
      "inputs": [
        {
          "internalType": "address",
          "name": "from",
          "type": "address"
        },
        {
          "internalType": "address",
          "name": "to",
          "type": "address"
        },
        {
          "internalType": "uint256",
          "name": "tokenId",
          "type": "uint256"
        }
      ],
      "name": "safeTransferFrom",
      "outputs": [],
      "stateMutability": "nonpayable",
      "type": "function"
    },
    {
      "inputs": [
        {
          "internalType": "address",
          "name": "from",
          "type": "address"
        },
        {
          "internalType": "address",
          "name": "to",
          "type": "address"
        },
        {
          "internalType": "uint256",
          "name": "tokenId",
          "type": "uint256"
        },
        {
          "internalType": "bytes",
          "name": "_data",
          "type": "bytes"
        }
      ],
      "name": "safeTransferFrom",
      "outputs": [],
      "stateMutability": "nonpayable",
      "type": "function"
    },
    {
      "inputs": [
        {
          "internalType": "address",
          "name": "operator",
          "type": "address"
        },
        {
          "internalType": "bool",
          "name": "approved",
          "type": "bool"
        }
      ],
      "name": "setApprovalForAll",
      "outputs": [],
      "stateMutability": "nonpayable",
      "type": "function"
    },
    {
      "inputs": [
        {
          "internalType": "bytes4",
          "name": "interfaceId",
          "type": "bytes4"
        }
      ],
      "name": "supportsInterface",
      "outputs": [
        {
          "internalType": "bool",
          "name": "",
          "type": "bool"
        }
      ],
      "stateMutability": "view",
      "type": "function",
      "constant": true
    },
    {
      "inputs": [],
      "name": "symbol",
      "outputs": [
        {
          "internalType": "string",
          "name": "",
          "type": "string"
        }
      ],
      "stateMutability": "view",
      "type": "function",
      "constant": true
    },
    {
      "inputs": [
        {
          "internalType": "uint256",
          "name": "index",
          "type": "uint256"
        }
      ],
      "name": "tokenByIndex",
      "outputs": [
        {
          "internalType": "uint256",
          "name": "",
          "type": "uint256"
        }
      ],
      "stateMutability": "view",
      "type": "function",
      "constant": true
    },
    {
      "inputs": [
        {
          "internalType": "address",
          "name": "owner",
          "type": "address"
        },
        {
          "internalType": "uint256",
          "name": "index",
          "type": "uint256"
        }
      ],
      "name": "tokenOfOwnerByIndex",
      "outputs": [
        {
          "internalType": "uint256",
          "name": "",
          "type": "uint256"
        }
      ],
      "stateMutability": "view",
      "type": "function",
      "constant": true
    },
    {
      "inputs": [
        {
          "internalType": "uint256",
          "name": "tokenId",
          "type": "uint256"
        }
      ],
      "name": "tokenURI",
      "outputs": [
        {
          "internalType": "string",
          "name": "",
          "type": "string"
        }
      ],
      "stateMutability": "view",
      "type": "function",
      "constant": true
    },
    {
      "inputs": [],
      "name": "totalSupply",
      "outputs": [
        {
          "internalType": "uint256",
          "name": "",
          "type": "uint256"
        }
      ],
      "stateMutability": "view",
      "type": "function",
      "constant": true
    },
    {
      "inputs": [
        {
          "internalType": "address",
          "name": "from",
          "type": "address"
        },
        {
          "internalType": "address",
          "name": "to",
          "type": "address"
        },
        {
          "internalType": "uint256",
          "name": "tokenId",
          "type": "uint256"
        }
      ],
      "name": "transferFrom",
      "outputs": [],
      "stateMutability": "nonpayable",
      "type": "function"
    },
    {
      "inputs": [
        {
          "internalType": "address",
          "name": "newOwner",
          "type": "address"
        }
      ],
      "name": "transferOwnership",
      "outputs": [],
      "stateMutability": "nonpayable",
      "type": "function"
    },
    {
      "inputs": [
        {
          "internalType": "string",
          "name": "_grimeHash",
          "type": "string"
        }
      ],
      "name": "set",
      "outputs": [],
      "stateMutability": "nonpayable",
      "type": "function"
    },
    {
      "inputs": [],
      "name": "get",
      "outputs": [
        {
          "internalType": "string",
          "name": "",
          "type": "string"
        }
      ],
      "stateMutability": "view",
      "type": "function",
      "constant": true
    },
    {
      "inputs": [
        {
          "internalType": "string",
          "name": "tokenURI",
          "type": "string"
        }
      ],
      "name": "createGrimeNFT",
      "outputs": [
        {
          "internalType": "uint256",
          "name": "",
          "type": "uint256"
        }
      ],
      "stateMutability": "nonpayable",
      "type": "function"
    }
  ],
  "bytecode": "0x60806040526000600c553480156200001657600080fd5b506040518060400160405280600981526020017f4772696d65204e465400000000000000000000000000000000000000000000008152506040518060400160405280600481526020017f474e4654000000000000000000000000000000000000000000000000000000008152506200009b6301ffc9a760e01b6200020f60201b60201c565b8160069080519060200190620000b392919062000320565b508060079080519060200190620000cc92919062000320565b50620000e56380ac58cd60e01b6200020f60201b60201c565b620000fd635b5e139f60e01b6200020f60201b60201c565b6200011563780e9d6360e01b6200020f60201b60201c565b50506000620001296200031860201b60201c565b905080600a60006101000a81548173ffffffffffffffffffffffffffffffffffffffff021916908373ffffffffffffffffffffffffffffffffffffffff1602179055508073ffffffffffffffffffffffffffffffffffffffff16600073ffffffffffffffffffffffffffffffffffffffff167f8be0079c531659141344cd1fd0a4f28419497f9722a3daafe3b4186f6b6457e060405160405180910390a35033600b60006101000a81548173ffffffffffffffffffffffffffffffffffffffff021916908373ffffffffffffffffffffffffffffffffffffffff160217905550620003c6565b63ffffffff60e01b817bffffffffffffffffffffffffffffffffffffffffffffffffffffffff19161415620002ac576040517f08c379a000000000000000000000000000000000000000000000000000000000815260040180806020018281038252601c8152602001807f4552433136353a20696e76616c696420696e746572666163652069640000000081525060200191505060405180910390fd5b6001600080837bffffffffffffffffffffffffffffffffffffffffffffffffffffffff19167bffffffffffffffffffffffffffffffffffffffffffffffffffffffff1916815260200190815260200160002060006101000a81548160ff02191690831515021790555050565b600033905090565b828054600181600116156101000203166002900490600052602060002090601f016020900481019282601f106200036357805160ff191683800117855562000394565b8280016001018555821562000394579182015b828111156200039357825182559160200191906001019062000376565b5b509050620003a39190620003a7565b5090565b5b80821115620003c2576000816000905550600101620003a8565b5090565b61364180620003d66000396000f3fe608060405234801561001057600080fd5b50600436106101585760003560e01c80636c0360eb116100c3578063a22cb4651161007c578063a22cb46514610888578063b2bdfa7b146108d8578063b88d4fde1461090c578063c87b56dd14610a11578063e985e9c514610ab8578063f2fde38b14610b3257610158565b80636c0360eb146106695780636d4ce63c146106ec57806370a082311461076f578063715018a6146107c75780638da5cb5b146107d157806395d89b411461080557610158565b80632f745c59116101155780632f745c591461037557806342842e0e146103d75780634ed3885e146104455780634f6ccce7146105005780636352211e146105425780636a7540f31461059a57610158565b806301ffc9a71461015d57806306fdde03146101c0578063081812fc14610243578063095ea7b31461029b57806318160ddd146102e957806323b872dd14610307575b600080fd5b6101a86004803603602081101561017357600080fd5b8101908080357bffffffffffffffffffffffffffffffffffffffffffffffffffffffff19169060200190929190505050610b76565b60405180821515815260200191505060405180910390f35b6101c8610bdd565b6040518080602001828103825283818151815260200191508051906020019080838360005b838110156102085780820151818401526020810190506101ed565b50505050905090810190601f1680156102355780820380516001836020036101000a031916815260200191505b509250505060405180910390f35b61026f6004803603602081101561025957600080fd5b8101908080359060200190929190505050610c7f565b604051808273ffffffffffffffffffffffffffffffffffffffff16815260200191505060405180910390f35b6102e7600480360360408110156102b157600080fd5b81019080803573ffffffffffffffffffffffffffffffffffffffff16906020019092919080359060200190929190505050610d1a565b005b6102f1610e5e565b6040518082815260200191505060405180910390f35b6103736004803603606081101561031d57600080fd5b81019080803573ffffffffffffffffffffffffffffffffffffffff169060200190929190803573ffffffffffffffffffffffffffffffffffffffff16906020019092919080359060200190929190505050610e6f565b005b6103c16004803603604081101561038b57600080fd5b81019080803573ffffffffffffffffffffffffffffffffffffffff16906020019092919080359060200190929190505050610ee5565b6040518082815260200191505060405180910390f35b610443600480360360608110156103ed57600080fd5b81019080803573ffffffffffffffffffffffffffffffffffffffff169060200190929190803573ffffffffffffffffffffffffffffffffffffffff16906020019092919080359060200190929190505050610f40565b005b6104fe6004803603602081101561045b57600080fd5b810190808035906020019064010000000081111561047857600080fd5b82018360208201111561048a57600080fd5b803590602001918460018302840111640100000000831117156104ac57600080fd5b91908080601f016020809104026020016040519081016040528093929190818152602001838380828437600081840152601f19601f820116905080830192505050505050509192919290505050610f60565b005b61052c6004803603602081101561051657600080fd5b8101908080359060200190929190505050611029565b6040518082815260200191505060405180910390f35b61056e6004803603602081101561055857600080fd5b810190808035906020019092919050505061104c565b604051808273ffffffffffffffffffffffffffffffffffffffff16815260200191505060405180910390f35b610653600480360360208110156105b057600080fd5b81019080803590602001906401000000008111156105cd57600080fd5b8201836020820111156105df57600080fd5b8035906020019184600183028401116401000000008311171561060157600080fd5b91908080601f016020809104026020016040519081016040528093929190818152602001838380828437600081840152601f19601f820116905080830192505050505050509192919290505050611083565b6040518082815260200191505060405180910390f35b610671611373565b6040518080602001828103825283818151815260200191508051906020019080838360005b838110156106b1578082015181840152602081019050610696565b50505050905090810190601f1680156106de5780820380516001836020036101000a031916815260200191505b509250505060405180910390f35b6106f4611415565b6040518080602001828103825283818151815260200191508051906020019080838360005b83811015610734578082015181840152602081019050610719565b50505050905090810190601f1680156107615780820380516001836020036101000a031916815260200191505b509250505060405180910390f35b6107b16004803603602081101561078557600080fd5b81019080803573ffffffffffffffffffffffffffffffffffffffff1690602001909291905050506114b7565b6040518082815260200191505060405180910390f35b6107cf61158c565b005b6107d96116fc565b604051808273ffffffffffffffffffffffffffffffffffffffff16815260200191505060405180910390f35b61080d611726565b6040518080602001828103825283818151815260200191508051906020019080838360005b8381101561084d578082015181840152602081019050610832565b50505050905090810190601f16801561087a5780820380516001836020036101000a031916815260200191505b509250505060405180910390f35b6108d66004803603604081101561089e57600080fd5b81019080803573ffffffffffffffffffffffffffffffffffffffff1690602001909291908035151590602001909291905050506117c8565b005b6108e061197e565b604051808273ffffffffffffffffffffffffffffffffffffffff16815260200191505060405180910390f35b610a0f6004803603608081101561092257600080fd5b81019080803573ffffffffffffffffffffffffffffffffffffffff169060200190929190803573ffffffffffffffffffffffffffffffffffffffff169060200190929190803590602001909291908035906020019064010000000081111561098957600080fd5b82018360208201111561099b57600080fd5b803590602001918460018302840111640100000000831117156109bd57600080fd5b91908080601f016020809104026020016040519081016040528093929190818152602001838380828437600081840152601f19601f8201169050808301925050505050505091929192905050506119a4565b005b610a3d60048036036020811015610a2757600080fd5b8101908080359060200190929190505050611a1c565b6040518080602001828103825283818151815260200191508051906020019080838360005b83811015610a7d578082015181840152602081019050610a62565b50505050905090810190601f168015610aaa5780820380516001836020036101000a031916815260200191505b509250505060405180910390f35b610b1a60048036036040811015610ace57600080fd5b81019080803573ffffffffffffffffffffffffffffffffffffffff169060200190929190803573ffffffffffffffffffffffffffffffffffffffff169060200190929190505050611ced565b60405180821515815260200191505060405180910390f35b610b7460048036036020811015610b4857600080fd5b81019080803573ffffffffffffffffffffffffffffffffffffffff169060200190929190505050611d81565b005b6000806000837bffffffffffffffffffffffffffffffffffffffffffffffffffffffff19167bffffffffffffffffffffffffffffffffffffffffffffffffffffffff1916815260200190815260200160002060009054906101000a900460ff169050919050565b606060068054600181600116156101000203166002900480601f016020809104026020016040519081016040528092919081815260200182805460018160011615610100020316600290048015610c755780601f10610c4a57610100808354040283529160200191610c75565b820191906000526020600020905b815481529060010190602001808311610c5857829003601f168201915b5050505050905090565b6000610c8a82611f76565b610cdf576040517f08c379a000000000000000000000000000000000000000000000000000000000815260040180806020018281038252602c81526020018061350a602c913960400191505060405180910390fd5b6004600083815260200190815260200160002060009054906101000a900473ffffffffffffffffffffffffffffffffffffffff169050919050565b6000610d258261104c565b90508073ffffffffffffffffffffffffffffffffffffffff168373ffffffffffffffffffffffffffffffffffffffff161415610dac576040517f08c379a00000000000000000000000000000000000000000000000000000000081526004018080602001828103825260218152602001806135ba6021913960400191505060405180910390fd5b8073ffffffffffffffffffffffffffffffffffffffff16610dcb611f93565b73ffffffffffffffffffffffffffffffffffffffff161480610dfa5750610df981610df4611f93565b611ced565b5b610e4f576040517f08c379a000000000000000000000000000000000000000000000000000000000815260040180806020018281038252603881526020018061345d6038913960400191505060405180910390fd5b610e598383611f9b565b505050565b6000610e6a6002612054565b905090565b610e80610e7a611f93565b82612069565b610ed5576040517f08c379a00000000000000000000000000000000000000000000000000000000081526004018080602001828103825260318152602001806135db6031913960400191505060405180910390fd5b610ee083838361215d565b505050565b6000610f3882600160008673ffffffffffffffffffffffffffffffffffffffff1673ffffffffffffffffffffffffffffffffffffffff1681526020019081526020016000206123a090919063ffffffff16565b905092915050565b610f5b838383604051806020016040528060008152506119a4565b505050565b610f68611f93565b73ffffffffffffffffffffffffffffffffffffffff16610f866116fc565b73ffffffffffffffffffffffffffffffffffffffff161461100f576040517f08c379a00000000000000000000000000000000000000000000000000000000081526004018080602001828103825260208152602001807f4f776e61626c653a2063616c6c6572206973206e6f7420746865206f776e657281525060200191505060405180910390fd5b80600d90805190602001906110259291906132cf565b5050565b6000806110408360026123ba90919063ffffffff16565b50905080915050919050565b600061107c826040518060600160405280602981526020016134bf6029913960026123e69092919063ffffffff16565b9050919050565b600061108d611f93565b73ffffffffffffffffffffffffffffffffffffffff166110ab6116fc565b73ffffffffffffffffffffffffffffffffffffffff1614611134576040517f08c379a00000000000000000000000000000000000000000000000000000000081526004018080602001828103825260208152602001807f4f776e61626c653a2063616c6c6572206973206e6f7420746865206f776e657281525060200191505060405180910390fd5b600073ffffffffffffffffffffffffffffffffffffffff163373ffffffffffffffffffffffffffffffffffffffff1614156111d7576040517f08c379a00000000000000000000000000000000000000000000000000000000081526004018080602001828103825260208152602001807f4552433732313a206d696e7420746f20746865207a65726f206164647265737381525060200191505060405180910390fd5b600e826040518082805190602001908083835b6020831061120d57805182526020820191506020810190506020830392506111ea565b6001836020036101000a038019825116818451168082178552505050505050905001915050908152602001604051809103902060009054906101000a900460ff16156112c1576040517f08c379a000000000000000000000000000000000000000000000000000000000815260040180806020018281038252601c8152602001807f4552433732313a20746f6b656e20616c7265616479206d696e7465640000000081525060200191505060405180910390fd5b6000600c5490506112d23382612405565b6112dc8184612423565b6001600c5401600c819055506001600e846040518082805190602001908083835b6020831061132057805182526020820191506020810190506020830392506112fd565b6001836020036101000a038019825116818451168082178552505050505050905001915050908152602001604051809103902060006101000a81548160ff02191690831515021790555080915050919050565b606060098054600181600116156101000203166002900480601f01602080910402602001604051908101604052809291908181526020018280546001816001161561010002031660029004801561140b5780601f106113e05761010080835404028352916020019161140b565b820191906000526020600020905b8154815290600101906020018083116113ee57829003601f168201915b5050505050905090565b6060600d8054600181600116156101000203166002900480601f0160208091040260200160405190810160405280929190818152602001828054600181600116156101000203166002900480156114ad5780601f10611482576101008083540402835291602001916114ad565b820191906000526020600020905b81548152906001019060200180831161149057829003601f168201915b5050505050905090565b60008073ffffffffffffffffffffffffffffffffffffffff168273ffffffffffffffffffffffffffffffffffffffff16141561153e576040517f08c379a000000000000000000000000000000000000000000000000000000000815260040180806020018281038252602a815260200180613495602a913960400191505060405180910390fd5b611585600160008473ffffffffffffffffffffffffffffffffffffffff1673ffffffffffffffffffffffffffffffffffffffff1681526020019081526020016000206124ad565b9050919050565b611594611f93565b73ffffffffffffffffffffffffffffffffffffffff166115b26116fc565b73ffffffffffffffffffffffffffffffffffffffff161461163b576040517f08c379a00000000000000000000000000000000000000000000000000000000081526004018080602001828103825260208152602001807f4f776e61626c653a2063616c6c6572206973206e6f7420746865206f776e657281525060200191505060405180910390fd5b600073ffffffffffffffffffffffffffffffffffffffff16600a60009054906101000a900473ffffffffffffffffffffffffffffffffffffffff1673ffffffffffffffffffffffffffffffffffffffff167f8be0079c531659141344cd1fd0a4f28419497f9722a3daafe3b4186f6b6457e060405160405180910390a36000600a60006101000a81548173ffffffffffffffffffffffffffffffffffffffff021916908373ffffffffffffffffffffffffffffffffffffffff160217905550565b6000600a60009054906101000a900473ffffffffffffffffffffffffffffffffffffffff16905090565b606060078054600181600116156101000203166002900480601f0160208091040260200160405190810160405280929190818152602001828054600181600116156101000203166002900480156117be5780601f10611793576101008083540402835291602001916117be565b820191906000526020600020905b8154815290600101906020018083116117a157829003601f168201915b5050505050905090565b6117d0611f93565b73ffffffffffffffffffffffffffffffffffffffff168273ffffffffffffffffffffffffffffffffffffffff161415611871576040517f08c379a00000000000000000000000000000000000000000000000000000000081526004018080602001828103825260198152602001807f4552433732313a20617070726f766520746f2063616c6c65720000000000000081525060200191505060405180910390fd5b806005600061187e611f93565b73ffffffffffffffffffffffffffffffffffffffff1673ffffffffffffffffffffffffffffffffffffffff16815260200190815260200160002060008473ffffffffffffffffffffffffffffffffffffffff1673ffffffffffffffffffffffffffffffffffffffff16815260200190815260200160002060006101000a81548160ff0219169083151502179055508173ffffffffffffffffffffffffffffffffffffffff1661192b611f93565b73ffffffffffffffffffffffffffffffffffffffff167f17307eab39ab6107e8899845ad3d59bd9653f200f220920489ca2b5937696c318360405180821515815260200191505060405180910390a35050565b600b60009054906101000a900473ffffffffffffffffffffffffffffffffffffffff1681565b6119b56119af611f93565b83612069565b611a0a576040517f08c379a00000000000000000000000000000000000000000000000000000000081526004018080602001828103825260318152602001806135db6031913960400191505060405180910390fd5b611a16848484846124c2565b50505050565b6060611a2782611f76565b611a7c576040517f08c379a000000000000000000000000000000000000000000000000000000000815260040180806020018281038252602f81526020018061358b602f913960400191505060405180910390fd5b6060600860008481526020019081526020016000208054600181600116156101000203166002900480601f016020809104026020016040519081016040528092919081815260200182805460018160011615610100020316600290048015611b255780601f10611afa57610100808354040283529160200191611b25565b820191906000526020600020905b815481529060010190602001808311611b0857829003601f168201915b505050505090506060611b36611373565b9050600081511415611b4c578192505050611ce8565b600082511115611c1d5780826040516020018083805190602001908083835b60208310611b8e5780518252602082019150602081019050602083039250611b6b565b6001836020036101000a03801982511681845116808217855250505050505090500182805190602001908083835b60208310611bdf5780518252602082019150602081019050602083039250611bbc565b6001836020036101000a0380198251168184511680821785525050505050509050019250505060405160208183030381529060405292505050611ce8565b80611c2785612534565b6040516020018083805190602001908083835b60208310611c5d5780518252602082019150602081019050602083039250611c3a565b6001836020036101000a03801982511681845116808217855250505050505090500182805190602001908083835b60208310611cae5780518252602082019150602081019050602083039250611c8b565b6001836020036101000a03801982511681845116808217855250505050505090500192505050604051602081830303815290604052925050505b919050565b6000600560008473ffffffffffffffffffffffffffffffffffffffff1673ffffffffffffffffffffffffffffffffffffffff16815260200190815260200160002060008373ffffffffffffffffffffffffffffffffffffffff1673ffffffffffffffffffffffffffffffffffffffff16815260200190815260200160002060009054906101000a900460ff16905092915050565b611d89611f93565b73ffffffffffffffffffffffffffffffffffffffff16611da76116fc565b73ffffffffffffffffffffffffffffffffffffffff1614611e30576040517f08c379a00000000000000000000000000000000000000000000000000000000081526004018080602001828103825260208152602001807f4f776e61626c653a2063616c6c6572206973206e6f7420746865206f776e657281525060200191505060405180910390fd5b600073ffffffffffffffffffffffffffffffffffffffff168173ffffffffffffffffffffffffffffffffffffffff161415611eb6576040517f08c379a00000000000000000000000000000000000000000000000000000000081526004018080602001828103825260268152602001806133c16026913960400191505060405180910390fd5b8073ffffffffffffffffffffffffffffffffffffffff16600a60009054906101000a900473ffffffffffffffffffffffffffffffffffffffff1673ffffffffffffffffffffffffffffffffffffffff167f8be0079c531659141344cd1fd0a4f28419497f9722a3daafe3b4186f6b6457e060405160405180910390a380600a60006101000a81548173ffffffffffffffffffffffffffffffffffffffff021916908373ffffffffffffffffffffffffffffffffffffffff16021790555050565b6000611f8c82600261267b90919063ffffffff16565b9050919050565b600033905090565b816004600083815260200190815260200160002060006101000a81548173ffffffffffffffffffffffffffffffffffffffff021916908373ffffffffffffffffffffffffffffffffffffffff160217905550808273ffffffffffffffffffffffffffffffffffffffff1661200e8361104c565b73ffffffffffffffffffffffffffffffffffffffff167f8c5be1e5ebec7d5bd14f71427d1e84f3dd0314c0f7b2291e5b200ac8c7c3b92560405160405180910390a45050565b600061206282600001612695565b9050919050565b600061207482611f76565b6120c9576040517f08c379a000000000000000000000000000000000000000000000000000000000815260040180806020018281038252602c815260200180613431602c913960400191505060405180910390fd5b60006120d48361104c565b90508073ffffffffffffffffffffffffffffffffffffffff168473ffffffffffffffffffffffffffffffffffffffff16148061214357508373ffffffffffffffffffffffffffffffffffffffff1661212b84610c7f565b73ffffffffffffffffffffffffffffffffffffffff16145b8061215457506121538185611ced565b5b91505092915050565b8273ffffffffffffffffffffffffffffffffffffffff1661217d8261104c565b73ffffffffffffffffffffffffffffffffffffffff16146121e9576040517f08c379a00000000000000000000000000000000000000000000000000000000081526004018080602001828103825260298152602001806135626029913960400191505060405180910390fd5b600073ffffffffffffffffffffffffffffffffffffffff168273ffffffffffffffffffffffffffffffffffffffff16141561226f576040517f08c379a00000000000000000000000000000000000000000000000000000000081526004018080602001828103825260248152602001806133e76024913960400191505060405180910390fd5b61227a8383836126a6565b612285600082611f9b565b6122d681600160008673ffffffffffffffffffffffffffffffffffffffff1673ffffffffffffffffffffffffffffffffffffffff1681526020019081526020016000206126ab90919063ffffffff16565b5061232881600160008573ffffffffffffffffffffffffffffffffffffffff1673ffffffffffffffffffffffffffffffffffffffff1681526020019081526020016000206126c590919063ffffffff16565b5061233f818360026126df9092919063ffffffff16565b50808273ffffffffffffffffffffffffffffffffffffffff168473ffffffffffffffffffffffffffffffffffffffff167fddf252ad1be2c89b69c2b068fc378daa952ba7f163c4a11628f55a4df523b3ef60405160405180910390a4505050565b60006123af8360000183612714565b60001c905092915050565b6000806000806123cd8660000186612797565b915091508160001c8160001c9350935050509250929050565b60006123f9846000018460001b84612830565b60001c90509392505050565b61241f828260405180602001604052806000815250612926565b5050565b61242c82611f76565b612481576040517f08c379a000000000000000000000000000000000000000000000000000000000815260040180806020018281038252602c815260200180613536602c913960400191505060405180910390fd5b806008600084815260200190815260200160002090805190602001906124a89291906132cf565b505050565b60006124bb82600001612997565b9050919050565b6124cd84848461215d565b6124d9848484846129a8565b61252e576040517f08c379a000000000000000000000000000000000000000000000000000000000815260040180806020018281038252603281526020018061338f6032913960400191505060405180910390fd5b50505050565b6060600082141561257c576040518060400160405280600181526020017f30000000000000000000000000000000000000000000000000000000000000008152509050612676565b600082905060005b600082146125a6578080600101915050600a828161259e57fe5b049150612584565b60608167ffffffffffffffff811180156125bf57600080fd5b506040519080825280601f01601f1916602001820160405280156125f25781602001600182028036833780820191505090505b50905060006001830390508593505b6000841461266e57600a848161261357fe5b0660300160f81b8282806001900393508151811061262d57fe5b60200101907effffffffffffffffffffffffffffffffffffffffffffffffffffffffffffff1916908160001a905350600a848161266657fe5b049350612601565b819450505050505b919050565b600061268d836000018360001b612bc1565b905092915050565b600081600001805490509050919050565b505050565b60006126bd836000018360001b612be4565b905092915050565b60006126d7836000018360001b612ccc565b905092915050565b600061270b846000018460001b8473ffffffffffffffffffffffffffffffffffffffff1660001b612d3c565b90509392505050565b600081836000018054905011612775576040517f08c379a000000000000000000000000000000000000000000000000000000000815260040180806020018281038252602281526020018061336d6022913960400191505060405180910390fd5b82600001828154811061278457fe5b9060005260206000200154905092915050565b600080828460000180549050116127f9576040517f08c379a00000000000000000000000000000000000000000000000000000000081526004018080602001828103825260228152602001806134e86022913960400191505060405180910390fd5b600084600001848154811061280a57fe5b906000526020600020906002020190508060000154816001015492509250509250929050565b600080846001016000858152602001908152602001600020549050600081141583906128f7576040517f08c379a00000000000000000000000000000000000000000000000000000000081526004018080602001828103825283818151815260200191508051906020019080838360005b838110156128bc5780820151818401526020810190506128a1565b50505050905090810190601f1680156128e95780820380516001836020036101000a031916815260200191505b509250505060405180910390fd5b5084600001600182038154811061290a57fe5b9060005260206000209060020201600101549150509392505050565b6129308383612e18565b61293d60008484846129a8565b612992576040517f08c379a000000000000000000000000000000000000000000000000000000000815260040180806020018281038252603281526020018061338f6032913960400191505060405180910390fd5b505050565b600081600001805490509050919050565b60006129c98473ffffffffffffffffffffffffffffffffffffffff1661300c565b6129d65760019050612bb9565b6060612b4063150b7a0260e01b6129eb611f93565b888787604051602401808573ffffffffffffffffffffffffffffffffffffffff1681526020018473ffffffffffffffffffffffffffffffffffffffff16815260200183815260200180602001828103825283818151815260200191508051906020019080838360005b83811015612a6f578082015181840152602081019050612a54565b50505050905090810190601f168015612a9c5780820380516001836020036101000a031916815260200191505b5095505050505050604051602081830303815290604052907bffffffffffffffffffffffffffffffffffffffffffffffffffffffff19166020820180517bffffffffffffffffffffffffffffffffffffffffffffffffffffffff838183161783525050505060405180606001604052806032815260200161338f603291398773ffffffffffffffffffffffffffffffffffffffff1661301f9092919063ffffffff16565b90506000818060200190516020811015612b5957600080fd5b8101908080519060200190929190505050905063150b7a0260e01b7bffffffffffffffffffffffffffffffffffffffffffffffffffffffff1916817bffffffffffffffffffffffffffffffffffffffffffffffffffffffff191614925050505b949350505050565b600080836001016000848152602001908152602001600020541415905092915050565b60008083600101600084815260200190815260200160002054905060008114612cc05760006001820390506000600186600001805490500390506000866000018281548110612c2f57fe5b9060005260206000200154905080876000018481548110612c4c57fe5b9060005260206000200181905550600183018760010160008381526020019081526020016000208190555086600001805480612c8457fe5b60019003818190600052602060002001600090559055866001016000878152602001908152602001600020600090556001945050505050612cc6565b60009150505b92915050565b6000612cd88383613037565b612d31578260000182908060018154018082558091505060019003906000526020600020016000909190919091505582600001805490508360010160008481526020019081526020016000208190555060019050612d36565b600090505b92915050565b6000808460010160008581526020019081526020016000205490506000811415612de357846000016040518060400160405280868152602001858152509080600181540180825580915050600190039060005260206000209060020201600090919091909150600082015181600001556020820151816001015550508460000180549050856001016000868152602001908152602001600020819055506001915050612e11565b82856000016001830381548110612df657fe5b90600052602060002090600202016001018190555060009150505b9392505050565b600073ffffffffffffffffffffffffffffffffffffffff168273ffffffffffffffffffffffffffffffffffffffff161415612ebb576040517f08c379a00000000000000000000000000000000000000000000000000000000081526004018080602001828103825260208152602001807f4552433732313a206d696e7420746f20746865207a65726f206164647265737381525060200191505060405180910390fd5b612ec481611f76565b15612f37576040517f08c379a000000000000000000000000000000000000000000000000000000000815260040180806020018281038252601c8152602001807f4552433732313a20746f6b656e20616c7265616479206d696e7465640000000081525060200191505060405180910390fd5b612f43600083836126a6565b612f9481600160008573ffffffffffffffffffffffffffffffffffffffff1673ffffffffffffffffffffffffffffffffffffffff1681526020019081526020016000206126c590919063ffffffff16565b50612fab818360026126df9092919063ffffffff16565b50808273ffffffffffffffffffffffffffffffffffffffff16600073ffffffffffffffffffffffffffffffffffffffff167fddf252ad1be2c89b69c2b068fc378daa952ba7f163c4a11628f55a4df523b3ef60405160405180910390a45050565b600080823b905060008111915050919050565b606061302e848460008561305a565b90509392505050565b600080836001016000848152602001908152602001600020541415905092915050565b6060824710156130b5576040517f08c379a000000000000000000000000000000000000000000000000000000000815260040180806020018281038252602681526020018061340b6026913960400191505060405180910390fd5b6130be8561300c565b613130576040517f08c379a000000000000000000000000000000000000000000000000000000000815260040180806020018281038252601d8152602001807f416464726573733a2063616c6c20746f206e6f6e2d636f6e747261637400000081525060200191505060405180910390fd5b600060608673ffffffffffffffffffffffffffffffffffffffff1685876040518082805190602001908083835b60208310613180578051825260208201915060208101905060208303925061315d565b6001836020036101000a03801982511681845116808217855250505050505090500191505060006040518083038185875af1925050503d80600081146131e2576040519150601f19603f3d011682016040523d82523d6000602084013e6131e7565b606091505b50915091506131f7828286613203565b92505050949350505050565b60608315613213578290506132c8565b6000835111156132265782518084602001fd5b816040517f08c379a00000000000000000000000000000000000000000000000000000000081526004018080602001828103825283818151815260200191508051906020019080838360005b8381101561328d578082015181840152602081019050613272565b50505050905090810190601f1680156132ba5780820380516001836020036101000a031916815260200191505b509250505060405180910390fd5b9392505050565b828054600181600116156101000203166002900490600052602060002090601f016020900481019282601f1061331057805160ff191683800117855561333e565b8280016001018555821561333e579182015b8281111561333d578251825591602001919060010190613322565b5b50905061334b919061334f565b5090565b5b80821115613368576000816000905550600101613350565b509056fe456e756d657261626c655365743a20696e646578206f7574206f6620626f756e64734552433732313a207472616e7366657220746f206e6f6e20455243373231526563656976657220696d706c656d656e7465724f776e61626c653a206e6577206f776e657220697320746865207a65726f20616464726573734552433732313a207472616e7366657220746f20746865207a65726f2061646472657373416464726573733a20696e73756666696369656e742062616c616e636520666f722063616c6c4552433732313a206f70657261746f7220717565727920666f72206e6f6e6578697374656e7420746f6b656e4552433732313a20617070726f76652063616c6c6572206973206e6f74206f776e6572206e6f7220617070726f76656420666f7220616c6c4552433732313a2062616c616e636520717565727920666f7220746865207a65726f20616464726573734552433732313a206f776e657220717565727920666f72206e6f6e6578697374656e7420746f6b656e456e756d657261626c654d61703a20696e646578206f7574206f6620626f756e64734552433732313a20617070726f76656420717565727920666f72206e6f6e6578697374656e7420746f6b656e4552433732314d657461646174613a2055524920736574206f66206e6f6e6578697374656e7420746f6b656e4552433732313a207472616e73666572206f6620746f6b656e2074686174206973206e6f74206f776e4552433732314d657461646174613a2055524920717565727920666f72206e6f6e6578697374656e7420746f6b656e4552433732313a20617070726f76616c20746f2063757272656e74206f776e65724552433732313a207472616e736665722063616c6c6572206973206e6f74206f776e6572206e6f7220617070726f766564a264697066735822122035d1da31ebc48d4171d7d7dd993d2df52e3f2f3843904d5b8b111c5509c2d04b64736f6c634300060c0033",
  "immutableReferences": {},
  "source": "// SPDX-License-Identifier: MIT\n\npragma solidity ^0.6.1;\n\nimport \"../client/node_modules/@openzeppelin/contracts/token/ERC721/ERC721.sol\";\nimport \"../client/node_modules/@openzeppelin/contracts/access/Ownable.sol\";\n\n\n\ncontract GrimeNFT is ERC721, Ownable {\n\n  address payable public _owner;\n  uint256 tokenCounter =0;\n\n  string grimeHash;\n  mapping(string => bool) _uriExists;\n\n\n  constructor() public ERC721 (\"Grime NFT\", \"GNFT\") {\n    _owner = msg.sender;\n  }\n\n\n  function set(string memory _grimeHash) public onlyOwner {\n    grimeHash = _grimeHash;\n  }\n\n  function get() public view returns (string memory) {\n    return grimeHash;\n  }\n\n\n\n  function createGrimeNFT(string memory tokenURI) public onlyOwner returns (uint256) {\n    require(msg.sender != address(0), \"ERC721: mint to the zero address\");\n    require(!_uriExists[tokenURI], \"ERC721: token already minted\");\n\n    uint256 newItemId = tokenCounter;\n    _safeMint(msg.sender, newItemId);\n    _setTokenURI(newItemId, tokenURI);\n    tokenCounter = tokenCounter +1;\n    _uriExists[tokenURI] = true;\n\n    return newItemId;\n  }\n\n}\n\n\n",
  "sourcePath": "/Users/bookz/Consensys/Truffle/Project/tryOne/try3/contracts/GrimeNFT.sol",
  "compiler": {
    "name": "solc",
    "version": "0.6.12+commit.27d51765.Emscripten.clang"
  },
  "schemaVersion": "3.4.3",
  "updatedAt": "2021-12-10T05:22:28.869Z",
  "networkType": "ethereum",
  "devdoc": {
    "kind": "dev",
    "methods": {
      "approve(address,uint256)": {
        "details": "See {IERC721-approve}."
      },
      "balanceOf(address)": {
        "details": "See {IERC721-balanceOf}."
      },
      "baseURI()": {
        "details": "Returns the base URI set via {_setBaseURI}. This will be automatically added as a prefix in {tokenURI} to each token's URI, or to the token ID if no specific URI is set for that token ID."
      },
      "getApproved(uint256)": {
        "details": "See {IERC721-getApproved}."
      },
      "isApprovedForAll(address,address)": {
        "details": "See {IERC721-isApprovedForAll}."
      },
      "name()": {
        "details": "See {IERC721Metadata-name}."
      },
      "owner()": {
        "details": "Returns the address of the current owner."
      },
      "ownerOf(uint256)": {
        "details": "See {IERC721-ownerOf}."
      },
      "renounceOwnership()": {
        "details": "Leaves the contract without owner. It will not be possible to call `onlyOwner` functions anymore. Can only be called by the current owner. NOTE: Renouncing ownership will leave the contract without an owner, thereby removing any functionality that is only available to the owner."
      },
      "safeTransferFrom(address,address,uint256)": {
        "details": "See {IERC721-safeTransferFrom}."
      },
      "safeTransferFrom(address,address,uint256,bytes)": {
        "details": "See {IERC721-safeTransferFrom}."
      },
      "setApprovalForAll(address,bool)": {
        "details": "See {IERC721-setApprovalForAll}."
      },
      "supportsInterface(bytes4)": {
        "details": "See {IERC165-supportsInterface}. Time complexity O(1), guaranteed to always use less than 30 000 gas."
      },
      "symbol()": {
        "details": "See {IERC721Metadata-symbol}."
      },
      "tokenByIndex(uint256)": {
        "details": "See {IERC721Enumerable-tokenByIndex}."
      },
      "tokenOfOwnerByIndex(address,uint256)": {
        "details": "See {IERC721Enumerable-tokenOfOwnerByIndex}."
      },
      "tokenURI(uint256)": {
        "details": "See {IERC721Metadata-tokenURI}."
      },
      "totalSupply()": {
        "details": "See {IERC721Enumerable-totalSupply}."
      },
      "transferFrom(address,address,uint256)": {
        "details": "See {IERC721-transferFrom}."
      },
      "transferOwnership(address)": {
        "details": "Transfers ownership of the contract to a new account (`newOwner`). Can only be called by the current owner."
      }
    },
    "version": 1
  },
  "userdoc": {
    "kind": "user",
    "methods": {},
    "version": 1
  }
}